{
  "contractName": "SMD_v5",
  "abi": [
    {
      "inputs": [
        {
          "internalType": "address",
          "name": "_tokenAddress",
          "type": "address"
        },
        {
          "internalType": "address",
          "name": "_rewardTokenAddress",
          "type": "address"
        }
      ],
      "payable": false,
      "stateMutability": "nonpayable",
      "type": "constructor"
    },
    {
      "anonymous": false,
      "inputs": [
        {
          "indexed": true,
          "internalType": "address",
          "name": "previousOwner",
          "type": "address"
        },
        {
          "indexed": true,
          "internalType": "address",
          "name": "newOwner",
          "type": "address"
        }
      ],
      "name": "OwnershipTransferred",
      "type": "event"
    },
    {
      "anonymous": false,
      "inputs": [
        {
          "indexed": true,
          "internalType": "address",
          "name": "token",
          "type": "address"
        },
        {
          "indexed": true,
          "internalType": "address",
          "name": "rewardToken",
          "type": "address"
        },
        {
          "indexed": true,
          "internalType": "address",
          "name": "staker_",
          "type": "address"
        },
        {
          "indexed": false,
          "internalType": "uint256",
          "name": "amount_",
          "type": "uint256"
        },
        {
          "indexed": false,
          "internalType": "uint256",
          "name": "reward_",
          "type": "uint256"
        }
      ],
      "name": "PaidOut",
      "type": "event"
    },
    {
      "anonymous": false,
      "inputs": [
        {
          "indexed": true,
          "internalType": "address",
          "name": "token",
          "type": "address"
        },
        {
          "indexed": true,
          "internalType": "address",
          "name": "staker_",
          "type": "address"
        },
        {
          "indexed": false,
          "internalType": "uint256",
          "name": "stakedAmount_",
          "type": "uint256"
        }
      ],
      "name": "Staked",
      "type": "event"
    },
    {
      "constant": true,
      "inputs": [],
      "name": "ERC20Interface",
      "outputs": [
        {
          "internalType": "contract IERC20",
          "name": "",
          "type": "address"
        }
      ],
      "payable": false,
      "stateMutability": "view",
      "type": "function"
    },
    {
      "constant": true,
      "inputs": [],
      "name": "accShare",
      "outputs": [
        {
          "internalType": "uint256",
          "name": "",
          "type": "uint256"
        }
      ],
      "payable": false,
      "stateMutability": "view",
      "type": "function"
    },
    {
      "constant": true,
      "inputs": [],
      "name": "buffer",
      "outputs": [
        {
          "internalType": "uint256",
          "name": "",
          "type": "uint256"
        }
      ],
      "payable": false,
      "stateMutability": "view",
      "type": "function"
    },
    {
      "constant": true,
      "inputs": [],
      "name": "endingBlock",
      "outputs": [
        {
          "internalType": "uint256",
          "name": "",
          "type": "uint256"
        }
      ],
      "payable": false,
      "stateMutability": "view",
      "type": "function"
    },
    {
      "constant": true,
      "inputs": [
        {
          "internalType": "address",
          "name": "",
          "type": "address"
        }
      ],
      "name": "hasStaked",
      "outputs": [
        {
          "internalType": "bool",
          "name": "",
          "type": "bool"
        }
      ],
      "payable": false,
      "stateMutability": "view",
      "type": "function"
    },
    {
      "constant": true,
      "inputs": [],
      "name": "increaseBlock",
      "outputs": [
        {
          "internalType": "uint256",
          "name": "",
          "type": "uint256"
        }
      ],
      "payable": false,
      "stateMutability": "view",
      "type": "function"
    },
    {
      "constant": true,
      "inputs": [],
      "name": "isOwner",
      "outputs": [
        {
          "internalType": "bool",
          "name": "",
          "type": "bool"
        }
      ],
      "payable": false,
      "stateMutability": "view",
      "type": "function"
    },
    {
      "constant": true,
      "inputs": [
        {
          "internalType": "address",
          "name": "",
          "type": "address"
        }
      ],
      "name": "isPaid",
      "outputs": [
        {
          "internalType": "bool",
          "name": "",
          "type": "bool"
        }
      ],
      "payable": false,
      "stateMutability": "view",
      "type": "function"
    },
    {
      "constant": true,
      "inputs": [],
      "name": "isPaused",
      "outputs": [
        {
          "internalType": "bool",
          "name": "",
          "type": "bool"
        }
      ],
      "payable": false,
      "stateMutability": "view",
      "type": "function"
    },
    {
      "constant": true,
      "inputs": [],
      "name": "lastRewardBlock",
      "outputs": [
        {
          "internalType": "uint256",
          "name": "",
          "type": "uint256"
        }
      ],
      "payable": false,
      "stateMutability": "view",
      "type": "function"
    },
    {
      "constant": true,
      "inputs": [],
      "name": "owner",
      "outputs": [
        {
          "internalType": "address",
          "name": "",
          "type": "address"
        }
      ],
      "payable": false,
      "stateMutability": "view",
      "type": "function"
    },
    {
      "constant": true,
      "inputs": [],
      "name": "period",
      "outputs": [
        {
          "internalType": "uint256",
          "name": "",
          "type": "uint256"
        }
      ],
      "payable": false,
      "stateMutability": "view",
      "type": "function"
    },
    {
      "constant": false,
      "inputs": [],
      "name": "renounceOwnership",
      "outputs": [],
      "payable": false,
      "stateMutability": "nonpayable",
      "type": "function"
    },
    {
      "constant": true,
      "inputs": [],
      "name": "rewardBalance",
      "outputs": [
        {
          "internalType": "uint256",
          "name": "",
          "type": "uint256"
        }
      ],
      "payable": false,
      "stateMutability": "view",
      "type": "function"
    },
    {
      "constant": true,
      "inputs": [],
      "name": "rewardTokenAddress",
      "outputs": [
        {
          "internalType": "address",
          "name": "",
          "type": "address"
        }
      ],
      "payable": false,
      "stateMutability": "view",
      "type": "function"
    },
    {
      "constant": true,
      "inputs": [],
      "name": "stakedBalance",
      "outputs": [
        {
          "internalType": "uint256",
          "name": "",
          "type": "uint256"
        }
      ],
      "payable": false,
      "stateMutability": "view",
      "type": "function"
    },
    {
      "constant": true,
      "inputs": [],
      "name": "stakedTotal",
      "outputs": [
        {
          "internalType": "uint256",
          "name": "",
          "type": "uint256"
        }
      ],
      "payable": false,
      "stateMutability": "view",
      "type": "function"
    },
    {
      "constant": true,
      "inputs": [],
      "name": "startingBlock",
      "outputs": [
        {
          "internalType": "uint256",
          "name": "",
          "type": "uint256"
        }
      ],
      "payable": false,
      "stateMutability": "view",
      "type": "function"
    },
    {
      "constant": true,
      "inputs": [],
      "name": "tokenAddress",
      "outputs": [
        {
          "internalType": "address",
          "name": "",
          "type": "address"
        }
      ],
      "payable": false,
      "stateMutability": "view",
      "type": "function"
    },
    {
      "constant": true,
      "inputs": [],
      "name": "totalReward",
      "outputs": [
        {
          "internalType": "uint256",
          "name": "",
          "type": "uint256"
        }
      ],
      "payable": false,
      "stateMutability": "view",
      "type": "function"
    },
    {
      "constant": false,
      "inputs": [
        {
          "internalType": "address",
          "name": "newOwner",
          "type": "address"
        }
      ],
      "name": "transferOwnership",
      "outputs": [],
      "payable": false,
      "stateMutability": "nonpayable",
      "type": "function"
    },
    {
      "constant": false,
      "inputs": [],
      "name": "incBlock",
      "outputs": [],
      "payable": false,
      "stateMutability": "nonpayable",
      "type": "function"
    },
    {
      "constant": true,
      "inputs": [
        {
          "internalType": "address",
          "name": "from",
          "type": "address"
        }
      ],
      "name": "userDeposits",
      "outputs": [
        {
          "internalType": "uint256",
          "name": "",
          "type": "uint256"
        },
        {
          "internalType": "uint256",
          "name": "",
          "type": "uint256"
        },
        {
          "internalType": "uint256",
          "name": "",
          "type": "uint256"
        },
        {
          "internalType": "uint256",
          "name": "",
          "type": "uint256"
        }
      ],
      "payable": false,
      "stateMutability": "view",
      "type": "function"
    },
    {
      "constant": false,
      "inputs": [
        {
          "internalType": "uint256",
          "name": "rewardAmount",
          "type": "uint256"
        },
        {
          "internalType": "uint256",
          "name": "_start",
          "type": "uint256"
        },
        {
          "internalType": "uint256",
          "name": "_end",
          "type": "uint256"
        }
      ],
      "name": "resetAndsetStartEndBlock",
      "outputs": [
        {
          "internalType": "bool",
          "name": "",
          "type": "bool"
        }
      ],
      "payable": false,
      "stateMutability": "nonpayable",
      "type": "function"
    },
    {
      "constant": true,
      "inputs": [
        {
          "internalType": "address",
          "name": "from",
          "type": "address"
        }
      ],
      "name": "fetchUserShare",
      "outputs": [
        {
          "internalType": "uint256",
          "name": "",
          "type": "uint256"
        }
      ],
      "payable": false,
      "stateMutability": "view",
      "type": "function"
    },
    {
      "constant": true,
      "inputs": [],
      "name": "rewPerBlock",
      "outputs": [
        {
          "internalType": "uint256",
          "name": "",
          "type": "uint256"
        }
      ],
      "payable": false,
      "stateMutability": "view",
      "type": "function"
    },
    {
      "constant": false,
      "inputs": [
        {
          "internalType": "uint256",
          "name": "amount",
          "type": "uint256"
        }
      ],
      "name": "stake",
      "outputs": [
        {
          "internalType": "bool",
          "name": "",
          "type": "bool"
        }
      ],
      "payable": false,
      "stateMutability": "nonpayable",
      "type": "function"
    },
    {
      "constant": false,
      "inputs": [],
      "name": "claimRewards",
      "outputs": [
        {
          "internalType": "bool",
          "name": "",
          "type": "bool"
        }
      ],
      "payable": false,
      "stateMutability": "nonpayable",
      "type": "function"
    },
    {
      "constant": false,
      "inputs": [],
      "name": "renew",
      "outputs": [
        {
          "internalType": "bool",
          "name": "",
          "type": "bool"
        }
      ],
      "payable": false,
      "stateMutability": "nonpayable",
      "type": "function"
    },
    {
      "constant": true,
      "inputs": [
        {
          "internalType": "address",
          "name": "from",
          "type": "address"
        }
      ],
      "name": "viewOldRewards",
      "outputs": [
        {
          "internalType": "uint256",
          "name": "",
          "type": "uint256"
        }
      ],
      "payable": false,
      "stateMutability": "view",
      "type": "function"
    },
    {
      "constant": false,
      "inputs": [],
      "name": "claimOldRewards",
      "outputs": [
        {
          "internalType": "bool",
          "name": "",
          "type": "bool"
        }
      ],
      "payable": false,
      "stateMutability": "nonpayable",
      "type": "function"
    },
    {
      "constant": true,
      "inputs": [
        {
          "internalType": "address",
          "name": "from",
          "type": "address"
        }
      ],
      "name": "calculate",
      "outputs": [
        {
          "internalType": "uint256",
          "name": "",
          "type": "uint256"
        }
      ],
      "payable": false,
      "stateMutability": "view",
      "type": "function"
    },
    {
      "constant": false,
      "inputs": [],
      "name": "withdraw",
      "outputs": [
        {
          "internalType": "bool",
          "name": "",
          "type": "bool"
        }
      ],
      "payable": false,
      "stateMutability": "nonpayable",
      "type": "function"
    },
    {
      "constant": false,
      "inputs": [],
      "name": "exit",
      "outputs": [
        {
          "internalType": "bool",
          "name": "",
          "type": "bool"
        }
      ],
      "payable": false,
      "stateMutability": "nonpayable",
      "type": "function"
    },
    {
      "constant": true,
      "inputs": [],
      "name": "currentBlock",
      "outputs": [
        {
          "internalType": "uint256",
          "name": "",
          "type": "uint256"
        }
      ],
      "payable": false,
      "stateMutability": "view",
      "type": "function"
    }
  ],
  "bytecode": "0x60806040523480156200001157600080fd5b506040516200471338038062004713833981810160405260408110156200003757600080fd5b810190808051906020019092919080519060200190929190505050620000626200030a60201b60201c565b6000806101000a81548173ffffffffffffffffffffffffffffffffffffffff021916908373ffffffffffffffffffffffffffffffffffffffff1602179055506000809054906101000a900473ffffffffffffffffffffffffffffffffffffffff1673ffffffffffffffffffffffffffffffffffffffff16600073ffffffffffffffffffffffffffffffffffffffff167f8be0079c531659141344cd1fd0a4f28419497f9722a3daafe3b4186f6b6457e060405160405180910390a3600073ffffffffffffffffffffffffffffffffffffffff168273ffffffffffffffffffffffffffffffffffffffff161415620001c1576040517f08c379a00000000000000000000000000000000000000000000000000000000081526004018080602001828103825260128152602001807f5a65726f20746f6b656e2061646472657373000000000000000000000000000081525060200191505060405180910390fd5b81600160006101000a81548173ffffffffffffffffffffffffffffffffffffffff021916908373ffffffffffffffffffffffffffffffffffffffff160217905550600073ffffffffffffffffffffffffffffffffffffffff168173ffffffffffffffffffffffffffffffffffffffff161415620002a6576040517f08c379a00000000000000000000000000000000000000000000000000000000081526004018080602001828103825260198152602001807f5a65726f2072657761726420746f6b656e20616464726573730000000000000081525060200191505060405180910390fd5b80600260006101000a81548173ffffffffffffffffffffffffffffffffffffffff021916908373ffffffffffffffffffffffffffffffffffffffff1602179055506001600e60006101000a81548160ff021916908315150217905550505062000312565b600033905090565b6143f180620003226000396000f3fe608060405234801561001057600080fd5b50600436106102115760003560e01c80637b1f337d11610125578063c93c8f34116100ad578063e6787b1b1161007c578063e6787b1b14610813578063e9fad8ee14610835578063edaafe2014610857578063ef78d4fd14610875578063f2fde38b1461089357610211565b8063c93c8f341461075d578063d66692a7146107b9578063d91c98d3146107d7578063e12ed13c146107f557610211565b8063a694fc3a116100f4578063a694fc3a1461069b578063a9d8952f146106e1578063a9f8d181146106ff578063aa5c3ab41461071d578063b187bd261461073b57610211565b80637b1f337d146105c75780638da5cb5b146105e55780638f32d59b1461062f5780639d76ea581461065157610211565b80634373efa4116101a85780636ded82f8116101775780636ded82f8146104e1578063715018a61461053d57806374a4f7d11461054757806374ca28c11461059f578063750142e6146105a957610211565b80634373efa4146103b957806350003ca6146104115780635b9f0016146104695780635f98f4f11461048757610211565b8063125f9e33116101e4578063125f9e33146102e15780631bbc4b831461032b578063372500ab146103755780633ccfd60b1461039757610211565b806303b2e7ed14610216578063096cf03f146102345780630ba36dcd146102525780630d932e70146102bf575b600080fd5b61021e6108d7565b6040518082815260200191505060405180910390f35b61023c610930565b6040518082815260200191505060405180910390f35b6102946004803603602081101561026857600080fd5b81019080803573ffffffffffffffffffffffffffffffffffffffff169060200190929190505050610936565b6040518085815260200184815260200183815260200182815260200194505050505060405180910390f35b6102c7610aaf565b604051808215151515815260200191505060405180910390f35b6102e9610f45565b604051808273ffffffffffffffffffffffffffffffffffffffff1673ffffffffffffffffffffffffffffffffffffffff16815260200191505060405180910390f35b610333610f6b565b604051808273ffffffffffffffffffffffffffffffffffffffff1673ffffffffffffffffffffffffffffffffffffffff16815260200191505060405180910390f35b61037d610f91565b604051808215151515815260200191505060405180910390f35b61039f61101e565b604051808215151515815260200191505060405180910390f35b6103fb600480360360208110156103cf57600080fd5b81019080803573ffffffffffffffffffffffffffffffffffffffff1690602001909291905050506111bf565b6040518082815260200191505060405180910390f35b6104536004803603602081101561042757600080fd5b81019080803573ffffffffffffffffffffffffffffffffffffffff169060200190929190505050611606565b6040518082815260200191505060405180910390f35b610471611632565b6040518082815260200191505060405180910390f35b6104c76004803603606081101561049d57600080fd5b81019080803590602001909291908035906020019092919080359060200190929190505050611638565b604051808215151515815260200191505060405180910390f35b610523600480360360208110156104f757600080fd5b81019080803573ffffffffffffffffffffffffffffffffffffffff169060200190929190505050611752565b604051808215151515815260200191505060405180910390f35b610545611772565b005b6105896004803603602081101561055d57600080fd5b81019080803573ffffffffffffffffffffffffffffffffffffffff1690602001909291905050506118ab565b6040518082815260200191505060405180910390f35b6105a7611b58565b005b6105b1611b6c565b6040518082815260200191505060405180910390f35b6105cf611b72565b6040518082815260200191505060405180910390f35b6105ed611b78565b604051808273ffffffffffffffffffffffffffffffffffffffff1673ffffffffffffffffffffffffffffffffffffffff16815260200191505060405180910390f35b610637611ba1565b604051808215151515815260200191505060405180910390f35b610659611bff565b604051808273ffffffffffffffffffffffffffffffffffffffff1673ffffffffffffffffffffffffffffffffffffffff16815260200191505060405180910390f35b6106c7600480360360208110156106b157600080fd5b8101908080359060200190929190505050611c25565b604051808215151515815260200191505060405180910390f35b6106e9611f91565b6040518082815260200191505060405180910390f35b610707611f97565b6040518082815260200191505060405180910390f35b610725611f9d565b6040518082815260200191505060405180910390f35b610743611fa3565b604051808215151515815260200191505060405180910390f35b61079f6004803603602081101561077357600080fd5b81019080803573ffffffffffffffffffffffffffffffffffffffff169060200190929190505050611fb6565b604051808215151515815260200191505060405180910390f35b6107c1611fd6565b6040518082815260200191505060405180910390f35b6107df611fdc565b6040518082815260200191505060405180910390f35b6107fd611fe2565b6040518082815260200191505060405180910390f35b61081b611fea565b604051808215151515815260200191505060405180910390f35b61083d612663565b604051808215151515815260200191505060405180910390f35b61085f61279b565b6040518082815260200191505060405180910390f35b61087d6127a1565b6040518082815260200191505060405180910390f35b6108d5600480360360208110156108a957600080fd5b81019080803573ffffffffffffffffffffffffffffffffffffffff1690602001909291905050506127a7565b005b60008060065414806108eb57506000600554145b156108f9576000905061092d565b600061092661091560075460085461282d90919063ffffffff16565b6006546128b690919063ffffffff16565b9050809150505b90565b600c5481565b600080600080601160008673ffffffffffffffffffffffffffffffffffffffff1673ffffffffffffffffffffffffffffffffffffffff16815260200190815260200160002060009054906101000a900460ff1615610aa757600f60008673ffffffffffffffffffffffffffffffffffffffff1673ffffffffffffffffffffffffffffffffffffffff16815260200190815260200160002060000154600f60008773ffffffffffffffffffffffffffffffffffffffff1673ffffffffffffffffffffffffffffffffffffffff16815260200190815260200160002060010154600f60008873ffffffffffffffffffffffffffffffffffffffff1673ffffffffffffffffffffffffffffffffffffffff16815260200190815260200160002060020154600f60008973ffffffffffffffffffffffffffffffffffffffff1673ffffffffffffffffffffffffffffffffffffffff168152602001908152602001600020600401549350935093509350610aa8565b5b9193509193565b600080339050600e60009054906101000a900460ff1615610b38576040517f08c379a000000000000000000000000000000000000000000000000000000000815260040180806020018281038252600f8152602001807f436f6e747261637420706175736564000000000000000000000000000000000081525060200191505060405180910390fd5b601160008273ffffffffffffffffffffffffffffffffffffffff1673ffffffffffffffffffffffffffffffffffffffff16815260200190815260200160002060009054906101000a900460ff16610bf7576040517f08c379a000000000000000000000000000000000000000000000000000000000815260040180806020018281038252601f8152602001807f4e6f207374616b696e677320666f756e642c20706c65617365207374616b650081525060200191505060405180910390fd5b600b54600f60008373ffffffffffffffffffffffffffffffffffffffff1673ffffffffffffffffffffffffffffffffffffffff168152602001908152602001600020600401541415610cb1576040517f08c379a000000000000000000000000000000000000000000000000000000000815260040180806020018281038252600f8152602001807f416c72656164792072656e65776564000000000000000000000000000000000081525060200191505060405180910390fd5b60075443118015610cc3575060085443105b610d35576040517f08c379a000000000000000000000000000000000000000000000000000000000815260040180806020018281038252600a8152602001807f57726f6e672074696d650000000000000000000000000000000000000000000081525060200191505060405180910390fd5b610d3d612945565b6000610d48826111bf565b1115610dcf576000610d58611fea565b905080610dcd576040517f08c379a00000000000000000000000000000000000000000000000000000000081526004018080602001828103825260188152602001807f4572726f7220706179696e67206f6c642072657761726473000000000000000081525060200191505060405180910390fd5b505b600b54600f60008373ffffffffffffffffffffffffffffffffffffffff1673ffffffffffffffffffffffffffffffffffffffff1681526020019081526020016000206004018190555043600f60008373ffffffffffffffffffffffffffffffffffffffff1673ffffffffffffffffffffffffffffffffffffffff1681526020019081526020016000206001018190555043600f60008373ffffffffffffffffffffffffffffffffffffffff1673ffffffffffffffffffffffffffffffffffffffff16815260200190815260200160002060020181905550600c54600f60008373ffffffffffffffffffffffffffffffffffffffff1673ffffffffffffffffffffffffffffffffffffffff16815260200190815260200160002060030181905550600f60008273ffffffffffffffffffffffffffffffffffffffff1673ffffffffffffffffffffffffffffffffffffffff168152602001908152602001600020600001546004600082825401925050819055505090565b600260009054906101000a900473ffffffffffffffffffffffffffffffffffffffff1681565b600e60019054906101000a900473ffffffffffffffffffffffffffffffffffffffff1681565b600080610f9d336118ab565b11611010576040517f08c379a00000000000000000000000000000000000000000000000000000000081526004018080602001828103825260188152602001807f4e6f207374616b657320666f756e6420666f722075736572000000000000000081525060200191505060405180910390fd5b61101933612a31565b905090565b60008033905060011515601160008373ffffffffffffffffffffffffffffffffffffffff1673ffffffffffffffffffffffffffffffffffffffff16815260200190815260200160002060009054906101000a900460ff161515146110ea576040517f08c379a000000000000000000000000000000000000000000000000000000000815260040180806020018281038252601c8152602001807f4e6f207374616b657320617661696c61626c6520666f7220757365720000000081525060200191505060405180910390fd5b60001515601060008373ffffffffffffffffffffffffffffffffffffffff1673ffffffffffffffffffffffffffffffffffffffff16815260200190815260200160002060009054906101000a900460ff161515146111b0576040517f08c379a000000000000000000000000000000000000000000000000000000000815260040180806020018281038252600c8152602001807f416c72656164792050616964000000000000000000000000000000000000000081525060200191505060405180910390fd5b6111b981612e1f565b91505090565b6000600e60009054906101000a900460ff1615611244576040517f08c379a000000000000000000000000000000000000000000000000000000000815260040180806020018281038252600f8152602001807f436f6e747261637420706175736564000000000000000000000000000000000081525060200191505060405180910390fd5b601160008373ffffffffffffffffffffffffffffffffffffffff1673ffffffffffffffffffffffffffffffffffffffff16815260200190815260200160002060009054906101000a900460ff16611303576040517f08c379a000000000000000000000000000000000000000000000000000000000815260040180806020018281038252601f8152602001807f4e6f207374616b696e677320666f756e642c20706c65617365207374616b650081525060200191505060405180910390fd5b600b54600f60008473ffffffffffffffffffffffffffffffffffffffff1673ffffffffffffffffffffffffffffffffffffffff1681526020019081526020016000206004015414156113585760009050611601565b6000600f60008473ffffffffffffffffffffffffffffffffffffffff1673ffffffffffffffffffffffffffffffffffffffff1681526020019081526020016000206004015490506000601260008381526020019081526020016000206001015490506000600f60008673ffffffffffffffffffffffffffffffffffffffff1673ffffffffffffffffffffffffffffffffffffffff1681526020019081526020016000206003015490506012600084815260200190815260200160002060040154600f60008773ffffffffffffffffffffffffffffffffffffffff1673ffffffffffffffffffffffffffffffffffffffff16815260200190815260200160002060020154106114ce576040517f08c379a000000000000000000000000000000000000000000000000000000000815260040180806020018281038252601b8152602001807f416c726561647920636c61696d6564206f6c642072657761726473000000000081525060200191505060405180910390fd5b6000600f60008773ffffffffffffffffffffffffffffffffffffffff1673ffffffffffffffffffffffffffffffffffffffff168152602001908152602001600020600001549050600061153f620f424061153185856130ba90919063ffffffff16565b6128b690919063ffffffff16565b9050600061157d8261156f620f424061156189886130ba90919063ffffffff16565b6128b690919063ffffffff16565b61282d90919063ffffffff16565b90506005548111156115f7576040517f08c379a00000000000000000000000000000000000000000000000000000000081526004018080602001828103825260128152602001807f4e6f7420656e6f7567682072657761726473000000000000000000000000000081525060200191505060405180910390fd5b8096505050505050505b919050565b600080611612836118ab565b1415611621576000905061162d565b61162a82613140565b90505b919050565b60045481565b6000611642611ba1565b6116b4576040517f08c379a00000000000000000000000000000000000000000000000000000000081526004018080602001828103825260208152602001807f4f776e61626c653a2063616c6c6572206973206e6f7420746865206f776e657281525060200191505060405180910390fd5b6116bc61331a565b60006116c785613446565b90508061173c576040517f08c379a000000000000000000000000000000000000000000000000000000000815260040180806020018281038252600d8152602001807f52657761726473206572726f720000000000000000000000000000000000000081525060200191505060405180910390fd5b61174684846136fa565b60019150509392505050565b60106020528060005260406000206000915054906101000a900460ff1681565b61177a611ba1565b6117ec576040517f08c379a00000000000000000000000000000000000000000000000000000000081526004018080602001828103825260208152602001807f4f776e61626c653a2063616c6c6572206973206e6f7420746865206f776e657281525060200191505060405180910390fd5b600073ffffffffffffffffffffffffffffffffffffffff166000809054906101000a900473ffffffffffffffffffffffffffffffffffffffff1673ffffffffffffffffffffffffffffffffffffffff167f8be0079c531659141344cd1fd0a4f28419497f9722a3daafe3b4186f6b6457e060405160405180910390a360008060006101000a81548173ffffffffffffffffffffffffffffffffffffffff021916908373ffffffffffffffffffffffffffffffffffffffff160217905550565b600060011515601160008473ffffffffffffffffffffffffffffffffffffffff1673ffffffffffffffffffffffffffffffffffffffff16815260200190815260200160002060009054906101000a900460ff16151514611973576040517f08c379a00000000000000000000000000000000000000000000000000000000081526004018080602001828103825260188152602001807f4e6f207374616b657320666f756e6420666f722075736572000000000000000081525060200191505060405180910390fd5b6000600454116119ce576040517f08c379a00000000000000000000000000000000000000000000000000000000081526004018080602001828103825260248152602001806143996024913960400191505060405180910390fd5b600b54600f60008473ffffffffffffffffffffffffffffffffffffffff1673ffffffffffffffffffffffffffffffffffffffff1681526020019081526020016000206004015414611a6a576040517f08c379a00000000000000000000000000000000000000000000000000000000081526004018080602001828103825260278152602001806143726027913960400191505060405180910390fd5b6000600f60008473ffffffffffffffffffffffffffffffffffffffff1673ffffffffffffffffffffffffffffffffffffffff16815260200190815260200160002060000154905060008111611b27576040517f08c379a000000000000000000000000000000000000000000000000000000000815260040180806020018281038252601c8152602001807f4e6f207374616b657320617661696c61626c6520666f7220757365720000000081525060200191505060405180910390fd5b611b50600454611b42612710846130ba90919063ffffffff16565b6128b690919063ffffffff16565b915050919050565b600960008154809291906001019190505550565b60065481565b60085481565b60008060009054906101000a900473ffffffffffffffffffffffffffffffffffffffff16905090565b60008060009054906101000a900473ffffffffffffffffffffffffffffffffffffffff1673ffffffffffffffffffffffffffffffffffffffff16611be3613882565b73ffffffffffffffffffffffffffffffffffffffff1614905090565b600160009054906101000a900473ffffffffffffffffffffffffffffffffffffffff1681565b60003382600160009054906101000a900473ffffffffffffffffffffffffffffffffffffffff1680600e60016101000a81548173ffffffffffffffffffffffffffffffffffffffff021916908373ffffffffffffffffffffffffffffffffffffffff1602179055506000600e60019054906101000a900473ffffffffffffffffffffffffffffffffffffffff1673ffffffffffffffffffffffffffffffffffffffff1663dd62ed3e85306040518363ffffffff1660e01b8152600401808373ffffffffffffffffffffffffffffffffffffffff1673ffffffffffffffffffffffffffffffffffffffff1681526020018273ffffffffffffffffffffffffffffffffffffffff1673ffffffffffffffffffffffffffffffffffffffff1681526020019250505060206040518083038186803b158015611d6257600080fd5b505afa158015611d76573d6000803e3d6000fd5b505050506040513d6020811015611d8c57600080fd5b8101908080519060200190929190505050905080831115611df8576040517f08c379a000000000000000000000000000000000000000000000000000000000815260040180806020018281038252602181526020018061427a6021913960400191505060405180910390fd5b600e60009054906101000a900460ff1615611e7b576040517f08c379a00000000000000000000000000000000000000000000000000000000081526004018080602001828103825260128152602001807f436f6e747261637420697320706175736564000000000000000000000000000081525060200191505060405180910390fd5b6007544310158015611e8e575060085443105b611f00576040517f08c379a000000000000000000000000000000000000000000000000000000000815260040180806020018281038252600e8152602001807f496e76616c696420706572696f6400000000000000000000000000000000000081525060200191505060405180910390fd5b60008611611f76576040517f08c379a00000000000000000000000000000000000000000000000000000000081526004018080602001828103825260148152602001807f43616e2774207374616b65203020616d6f756e7400000000000000000000000081525060200191505060405180910390fd5b6000339050611f85818861388a565b95505050505050919050565b60095481565b600d5481565b60055481565b600e60009054906101000a900460ff1681565b60116020528060005260406000206000915054906101000a900460ff1681565b60035481565b60075481565b600043905090565b600080339050600e60009054906101000a900460ff1615612073576040517f08c379a000000000000000000000000000000000000000000000000000000000815260040180806020018281038252600f8152602001807f436f6e747261637420706175736564000000000000000000000000000000000081525060200191505060405180910390fd5b601160008273ffffffffffffffffffffffffffffffffffffffff1673ffffffffffffffffffffffffffffffffffffffff16815260200190815260200160002060009054906101000a900460ff16612132576040517f08c379a000000000000000000000000000000000000000000000000000000000815260040180806020018281038252601f8152602001807f4e6f207374616b696e677320666f756e642c20706c65617365207374616b650081525060200191505060405180910390fd5b600b54600f60008373ffffffffffffffffffffffffffffffffffffffff1673ffffffffffffffffffffffffffffffffffffffff1681526020019081526020016000206004015414156121ec576040517f08c379a000000000000000000000000000000000000000000000000000000000815260040180806020018281038252600f8152602001807f416c72656164792072656e65776564000000000000000000000000000000000081525060200191505060405180910390fd5b6000600f60008373ffffffffffffffffffffffffffffffffffffffff1673ffffffffffffffffffffffffffffffffffffffff1681526020019081526020016000206004015490506000601260008381526020019081526020016000206001015490506000600f60008573ffffffffffffffffffffffffffffffffffffffff1673ffffffffffffffffffffffffffffffffffffffff1681526020019081526020016000206003015490506012600084815260200190815260200160002060040154600f60008673ffffffffffffffffffffffffffffffffffffffff1673ffffffffffffffffffffffffffffffffffffffff1681526020019081526020016000206002015410612362576040517f08c379a000000000000000000000000000000000000000000000000000000000815260040180806020018281038252601b8152602001807f416c726561647920636c61696d6564206f6c642072657761726473000000000081525060200191505060405180910390fd5b6000600f60008673ffffffffffffffffffffffffffffffffffffffff1673ffffffffffffffffffffffffffffffffffffffff16815260200190815260200160002060000154905060006123d3620f42406123c585856130ba90919063ffffffff16565b6128b690919063ffffffff16565b9050600061241182612403620f42406123f589886130ba90919063ffffffff16565b6128b690919063ffffffff16565b61282d90919063ffffffff16565b905060055481111561248b576040517f08c379a00000000000000000000000000000000000000000000000000000000081526004018080602001828103825260128152602001807f4e6f7420656e6f7567682072657761726473000000000000000000000000000081525060200191505060405180910390fd5b6012600087815260200190815260200160002060040154600f60008973ffffffffffffffffffffffffffffffffffffffff1673ffffffffffffffffffffffffffffffffffffffff1681526020019081526020016000206002018190555060006125178883600260009054906101000a900473ffffffffffffffffffffffffffffffffffffffff16613e01565b90508061258c576040517f08c379a000000000000000000000000000000000000000000000000000000000815260040180806020018281038252600c8152602001807f4572726f7220706179696e67000000000000000000000000000000000000000081525060200191505060405180910390fd5b8773ffffffffffffffffffffffffffffffffffffffff16600260009054906101000a900473ffffffffffffffffffffffffffffffffffffffff1673ffffffffffffffffffffffffffffffffffffffff16600160009054906101000a900473ffffffffffffffffffffffffffffffffffffffff1673ffffffffffffffffffffffffffffffffffffffff167f0fd12da3890315fa38b862dc2fff7f24c95981f6508cc2be090640de791b671e8786604051808381526020018281526020019250505060405180910390a460019850505050505050505090565b600080339050600061267482611606565b11156126fb576000612684610f91565b9050806126f9576040517f08c379a00000000000000000000000000000000000000000000000000000000081526004018080602001828103825260148152602001807f4572726f7220706179696e67207265776172647300000000000000000000000081525060200191505060405180910390fd5b505b6000612706826111bf565b111561278d576000612716611fea565b90508061278b576040517f08c379a00000000000000000000000000000000000000000000000000000000081526004018080602001828103825260188152602001807f4572726f7220706179696e67206f6c642072657761726473000000000000000081525060200191505060405180910390fd5b505b61279681612e1f565b505090565b600a5481565b600b5481565b6127af611ba1565b612821576040517f08c379a00000000000000000000000000000000000000000000000000000000081526004018080602001828103825260208152602001807f4f776e61626c653a2063616c6c6572206973206e6f7420746865206f776e657281525060200191505060405180910390fd5b61282a81613f31565b50565b6000828211156128a5576040517f08c379a000000000000000000000000000000000000000000000000000000000815260040180806020018281038252601e8152602001807f536166654d6174683a207375627472616374696f6e206f766572666c6f77000081525060200191505060405180910390fd5b600082840390508091505092915050565b600080821161292d576040517f08c379a000000000000000000000000000000000000000000000000000000000815260040180806020018281038252601a8152602001807f536166654d6174683a206469766973696f6e206279207a65726f00000000000081525060200191505060405180910390fd5b600082848161293857fe5b0490508091505092915050565b600d54431161295357612a2f565b6000600454141561296a5743600d81905550612a2f565b600060085443106129935761298c600d5460085461282d90919063ffffffff16565b90506129ab565b6129a8600d544361282d90919063ffffffff16565b90505b60006129c76129b86108d7565b836130ba90919063ffffffff16565b9050612a076129f66004546129e8620f4240856130ba90919063ffffffff16565b6128b690919063ffffffff16565b600c5461407590919063ffffffff16565b600c819055506008544310612a2457600854600d81905550612a2c565b43600d819055505b50505b565b600080600f60008473ffffffffffffffffffffffffffffffffffffffff1673ffffffffffffffffffffffffffffffffffffffff168152602001908152602001600020600301549050612a81612945565b6000600f60008573ffffffffffffffffffffffffffffffffffffffff1673ffffffffffffffffffffffffffffffffffffffff1681526020019081526020016000206000015490506000612af2620f4240612ae485856130ba90919063ffffffff16565b6128b690919063ffffffff16565b90506000612b3282612b24620f4240612b16600c54886130ba90919063ffffffff16565b6128b690919063ffffffff16565b61282d90919063ffffffff16565b905060008111612baa576040517f08c379a00000000000000000000000000000000000000000000000000000000081526004018080602001828103825260148152602001807f4e6f20726577617264732067656e65726174656400000000000000000000000081525060200191505060405180910390fd5b600554811115612c05576040517f08c379a00000000000000000000000000000000000000000000000000000000081526004018080602001828103825260228152602001806142c16022913960400191505060405180910390fd5b600c54600f60008873ffffffffffffffffffffffffffffffffffffffff1673ffffffffffffffffffffffffffffffffffffffff1681526020019081526020016000206003018190555043600f60008873ffffffffffffffffffffffffffffffffffffffff1673ffffffffffffffffffffffffffffffffffffffff16815260200190815260200160002060020181905550806005600082825403925050819055506000612cd48783600260009054906101000a900473ffffffffffffffffffffffffffffffffffffffff16613e01565b905080612d49576040517f08c379a00000000000000000000000000000000000000000000000000000000081526004018080602001828103825260178152602001807f52657761726473207472616e73666572206661696c656400000000000000000081525060200191505060405180910390fd5b8673ffffffffffffffffffffffffffffffffffffffff16600260009054906101000a900473ffffffffffffffffffffffffffffffffffffffff1673ffffffffffffffffffffffffffffffffffffffff16600160009054906101000a900473ffffffffffffffffffffffffffffffffffffffff1673ffffffffffffffffffffffffffffffffffffffff167f0fd12da3890315fa38b862dc2fff7f24c95981f6508cc2be090640de791b671e8786604051808381526020018281526020019250505060405180910390a4600195505050505050919050565b6000612e29612945565b6000600f60008473ffffffffffffffffffffffffffffffffffffffff1673ffffffffffffffffffffffffffffffffffffffff168152602001908152602001600020600001549050600e60009054906101000a900460ff16158015612ed05750600b54600f60008573ffffffffffffffffffffffffffffffffffffffff1673ffffffffffffffffffffffffffffffffffffffff16815260200190815260200160002060040154145b15612ef157612eea8160045461282d90919063ffffffff16565b6004819055505b6001601060008573ffffffffffffffffffffffffffffffffffffffff1673ffffffffffffffffffffffffffffffffffffffff16815260200190815260200160002060006101000a81548160ff0219169083151502179055506000601160008573ffffffffffffffffffffffffffffffffffffffff1673ffffffffffffffffffffffffffffffffffffffff16815260200190815260200160002060006101000a81548160ff0219169083151502179055506000612fd08483600160009054906101000a900473ffffffffffffffffffffffffffffffffffffffff16613e01565b905080613045576040517f08c379a00000000000000000000000000000000000000000000000000000000081526004018080602001828103825260058152602001807f4572726f7200000000000000000000000000000000000000000000000000000081525060200191505060405180910390fd5b600f60008573ffffffffffffffffffffffffffffffffffffffff1673ffffffffffffffffffffffffffffffffffffffff16815260200190815260200160002060008082016000905560018201600090556002820160009055600382016000905560048201600090555050600192505050919050565b6000808314156130cd576000905061313a565b60008284029050828482816130de57fe5b0414613135576040517f08c379a00000000000000000000000000000000000000000000000000000000081526004018080602001828103825260218152602001806142e36021913960400191505060405180910390fd5b809150505b92915050565b600080600f60008473ffffffffffffffffffffffffffffffffffffffff1673ffffffffffffffffffffffffffffffffffffffff1681526020019081526020016000206003015490506000600c549050600d5443116131a357600092505050613315565b600060045414156131b957600092505050613315565b600060085443106131e2576131db600d5460085461282d90919063ffffffff16565b90506131fa565b6131f7600d544361282d90919063ffffffff16565b90505b60006132166132076108d7565b836130ba90919063ffffffff16565b90506000613256613247600454613239620f4240866130ba90919063ffffffff16565b6128b690919063ffffffff16565b8561407590919063ffffffff16565b90506000600f60008973ffffffffffffffffffffffffffffffffffffffff1673ffffffffffffffffffffffffffffffffffffffff16815260200190815260200160002060000154905060006132c9620f42406132bb89856130ba90919063ffffffff16565b6128b690919063ffffffff16565b90506000613307826132f9620f42406132eb88886130ba90919063ffffffff16565b6128b690919063ffffffff16565b61282d90919063ffffffff16565b905080985050505050505050505b919050565b6008544311613391576040517f08c379a000000000000000000000000000000000000000000000000000000000815260040180806020018281038252601c8152602001807f576169742074696c6c20656e64206f66207468697320706572696f640000000081525060200191505060405180910390fd5b613399612945565b6040518060a00160405280600b548152602001600c5481526020016133bc6108d7565b8152602001600754815260200160085481525060126000600b5481526020019081526020016000206000820151816000015560208201518160010155604082015181600201556060820151816003015560808201518160040155905050600060068190555060006004819055506001600e60006101000a81548160ff021916908315150217905550565b60003382600260009054906101000a900473ffffffffffffffffffffffffffffffffffffffff1680600e60016101000a81548173ffffffffffffffffffffffffffffffffffffffff021916908373ffffffffffffffffffffffffffffffffffffffff1602179055506000600e60019054906101000a900473ffffffffffffffffffffffffffffffffffffffff1673ffffffffffffffffffffffffffffffffffffffff1663dd62ed3e85306040518363ffffffff1660e01b8152600401808373ffffffffffffffffffffffffffffffffffffffff1673ffffffffffffffffffffffffffffffffffffffff1681526020018273ffffffffffffffffffffffffffffffffffffffff1673ffffffffffffffffffffffffffffffffffffffff1681526020019250505060206040518083038186803b15801561358357600080fd5b505afa158015613597573d6000803e3d6000fd5b505050506040513d60208110156135ad57600080fd5b8101908080519060200190929190505050905080831115613619576040517f08c379a000000000000000000000000000000000000000000000000000000000815260040180806020018281038252602181526020018061427a6021913960400191505060405180910390fd5b6000861161368f576040517f08c379a00000000000000000000000000000000000000000000000000000000081526004018080602001828103825260178152602001807f526577617264206d75737420626520706f73697469766500000000000000000081525060200191505060405180910390fd5b60003390506136c18188600260009054906101000a900473ffffffffffffffffffffffffffffffffffffffff166140fd565b6136cf5760009550506136f1565b8660066000828254019250508190555086600560008282540192505081905550505b50505050919050565b613702611fe2565b8211613759576040517f08c379a00000000000000000000000000000000000000000000000000000000081526004018080602001828103825260278152602001806143256027913960400191505060405180910390fd5b8181116137b1576040517f08c379a000000000000000000000000000000000000000000000000000000000815260040180806020018281038252602681526020018061434c6026913960400191505060405180910390fd5b6137b9611fe2565b81116137c457600080fd5b60006006541161383c576040517f08c379a000000000000000000000000000000000000000000000000000000000815260040180806020018281038252601b8152602001807f416464207265776172647320666f72207468697320706572696f64000000000081525060200191505060405180910390fd5b8160078190555080600881905550600b600081548092919060010191905055506000600e60006101000a81548160ff02191690831515021790555081600d819055505050565b600033905090565b6000613894612945565b601160008473ffffffffffffffffffffffffffffffffffffffff1673ffffffffffffffffffffffffffffffffffffffff16815260200190815260200160002060009054906101000a900460ff16613b1e576139128383600160009054906101000a900473ffffffffffffffffffffffffffffffffffffffff166140fd565b61391f5760009050613dfb565b6040518060a00160405280838152602001438152602001438152602001600c548152602001600b54815250600f60008573ffffffffffffffffffffffffffffffffffffffff1673ffffffffffffffffffffffffffffffffffffffff16815260200190815260200160002060008201518160000155602082015181600101556040820151816002015560608201518160030155608082015181600401559050508273ffffffffffffffffffffffffffffffffffffffff16600160009054906101000a900473ffffffffffffffffffffffffffffffffffffffff1673ffffffffffffffffffffffffffffffffffffffff167f5dac0c1b1112564a045ba943c9d50270893e8e826c49be8e7073adc713ab7bd7846040518082815260200191505060405180910390a381600460008282540192505081905550816003600082825401925050819055506001601160008573ffffffffffffffffffffffffffffffffffffffff1673ffffffffffffffffffffffffffffffffffffffff16815260200190815260200160002060006101000a81548160ff0219169083151502179055506000601060008573ffffffffffffffffffffffffffffffffffffffff1673ffffffffffffffffffffffffffffffffffffffff16815260200190815260200160002060006101000a81548160ff02191690831515021790555060019050613dfb565b600b54600f60008573ffffffffffffffffffffffffffffffffffffffff1673ffffffffffffffffffffffffffffffffffffffff1681526020019081526020016000206004015414613bba576040517f08c379a00000000000000000000000000000000000000000000000000000000081526004018080602001828103825260218152602001806143046021913960400191505060405180910390fd5b613bc383612a31565b50613bf18383600160009054906101000a900473ffffffffffffffffffffffffffffffffffffffff166140fd565b613bfe5760009050613dfb565b6000600f60008573ffffffffffffffffffffffffffffffffffffffff1673ffffffffffffffffffffffffffffffffffffffff1681526020019081526020016000206000015490506040518060a00160405280613c63858461407590919063ffffffff16565b8152602001438152602001438152602001600c548152602001600b54815250600f60008673ffffffffffffffffffffffffffffffffffffffff1673ffffffffffffffffffffffffffffffffffffffff16815260200190815260200160002060008201518160000155602082015181600101556040820151816002015560608201518160030155608082015181600401559050508373ffffffffffffffffffffffffffffffffffffffff16600160009054906101000a900473ffffffffffffffffffffffffffffffffffffffff1673ffffffffffffffffffffffffffffffffffffffff167f5dac0c1b1112564a045ba943c9d50270893e8e826c49be8e7073adc713ab7bd7856040518082815260200191505060405180910390a382600460008282540192505081905550826003600082825401925050819055506000601060008673ffffffffffffffffffffffffffffffffffffffff1673ffffffffffffffffffffffffffffffffffffffff16815260200190815260200160002060006101000a81548160ff02191690831515021790555060019150505b92915050565b600081600e60016101000a81548173ffffffffffffffffffffffffffffffffffffffff021916908373ffffffffffffffffffffffffffffffffffffffff160217905550600e60019054906101000a900473ffffffffffffffffffffffffffffffffffffffff1673ffffffffffffffffffffffffffffffffffffffff1663a9059cbb85856040518363ffffffff1660e01b8152600401808373ffffffffffffffffffffffffffffffffffffffff1673ffffffffffffffffffffffffffffffffffffffff16815260200182815260200192505050602060405180830381600087803b158015613eed57600080fd5b505af1158015613f01573d6000803e3d6000fd5b505050506040513d6020811015613f1757600080fd5b810190808051906020019092919050505090509392505050565b600073ffffffffffffffffffffffffffffffffffffffff168173ffffffffffffffffffffffffffffffffffffffff161415613fb7576040517f08c379a000000000000000000000000000000000000000000000000000000000815260040180806020018281038252602681526020018061429b6026913960400191505060405180910390fd5b8073ffffffffffffffffffffffffffffffffffffffff166000809054906101000a900473ffffffffffffffffffffffffffffffffffffffff1673ffffffffffffffffffffffffffffffffffffffff167f8be0079c531659141344cd1fd0a4f28419497f9722a3daafe3b4186f6b6457e060405160405180910390a3806000806101000a81548173ffffffffffffffffffffffffffffffffffffffff021916908373ffffffffffffffffffffffffffffffffffffffff16021790555050565b6000808284019050838110156140f3576040517f08c379a000000000000000000000000000000000000000000000000000000000815260040180806020018281038252601b8152602001807f536166654d6174683a206164646974696f6e206f766572666c6f77000000000081525060200191505060405180910390fd5b8091505092915050565b600061410b84308585614114565b90509392505050565b600081600e60016101000a81548173ffffffffffffffffffffffffffffffffffffffff021916908373ffffffffffffffffffffffffffffffffffffffff160217905550600e60019054906101000a900473ffffffffffffffffffffffffffffffffffffffff1673ffffffffffffffffffffffffffffffffffffffff166323b872dd8686866040518463ffffffff1660e01b8152600401808473ffffffffffffffffffffffffffffffffffffffff1673ffffffffffffffffffffffffffffffffffffffff1681526020018373ffffffffffffffffffffffffffffffffffffffff1673ffffffffffffffffffffffffffffffffffffffff1681526020018281526020019350505050602060405180830381600087803b15801561423457600080fd5b505af1158015614248573d6000803e3d6000fd5b505050506040513d602081101561425e57600080fd5b8101908080519060200190929190505050905094935050505056fe4d616b65207375726520746f2061646420656e6f75676820616c6c6f77616e63654f776e61626c653a206e6577206f776e657220697320746865207a65726f20616464726573734e6f7420656e6f756768207265776172647320696e2074686520636f6e7472616374536166654d6174683a206d756c7469706c69636174696f6e206f766572666c6f77506c656173652072656e657720666972737420616e64207468656e207374616b6553746172742073686f756c64206265206d6f7265207468616e2063757272656e7420626c6f636b456e6420626c6f636b2073686f756c642062652067726561746572207468616e207374617274506c656173652072656e657720696e20746865206163746976652076616c696420706572696f644e6f207374616b696e677320666f756e6420666f722063757272656e7420706572696f64a265627a7a723158206a3c3cfdfc7e63fcceeddf6e6c54a35f74e8669a9e0e76ee9cd06ebc07c588c764736f6c63430005100032",
  "source": "pragma solidity ^0.5.0;\r\n\r\ninterface IERC20 {\r\n    function totalSupply() external view returns (uint256);\r\n\r\n    function balanceOf(address account) external view returns (uint256);\r\n\r\n    function transfer(address recipient, uint256 amount)\r\n        external\r\n        returns (bool);\r\n\r\n    function token0() external view returns (address);\r\n\r\n    function token1() external view returns (address);\r\n\r\n    function getReserves()\r\n        external\r\n        view\r\n        returns (\r\n            uint112 reserve0,\r\n            uint112 reserve1,\r\n            uint32 blockTimestampLast\r\n        );\r\n\r\n    function allowance(address owner, address spender)\r\n        external\r\n        view\r\n        returns (uint256);\r\n\r\n    function approve(address spender, uint256 amount) external returns (bool);\r\n\r\n    function transferFrom(\r\n        address sender,\r\n        address recipient,\r\n        uint256 amount\r\n    ) external returns (bool);\r\n\r\n    event Transfer(address indexed from, address indexed to, uint256 value);\r\n\r\n    event Approval(\r\n        address indexed owner,\r\n        address indexed spender,\r\n        uint256 value\r\n    );\r\n}\r\n\r\npragma solidity ^0.5.0;\r\n\r\nlibrary SafeMath {\r\n    function add(uint256 a, uint256 b) internal pure returns (uint256) {\r\n        uint256 c = a + b;\r\n        require(c >= a, \"SafeMath: addition overflow\");\r\n\r\n        return c;\r\n    }\r\n\r\n    function sub(uint256 a, uint256 b) internal pure returns (uint256) {\r\n        require(b <= a, \"SafeMath: subtraction overflow\");\r\n        uint256 c = a - b;\r\n\r\n        return c;\r\n    }\r\n\r\n    function mul(uint256 a, uint256 b) internal pure returns (uint256) {\r\n        if (a == 0) {\r\n            return 0;\r\n        }\r\n\r\n        uint256 c = a * b;\r\n        require(c / a == b, \"SafeMath: multiplication overflow\");\r\n\r\n        return c;\r\n    }\r\n\r\n    function div(uint256 a, uint256 b) internal pure returns (uint256) {\r\n        // Solidity only automatically asserts when dividing by 0\r\n        require(b > 0, \"SafeMath: division by zero\");\r\n        uint256 c = a / b;\r\n        // assert(a == b * c + a % b); // There is no case in which this doesn't hold\r\n\r\n        return c;\r\n    }\r\n\r\n    function mod(uint256 a, uint256 b) internal pure returns (uint256) {\r\n        require(b != 0, \"SafeMath: modulo by zero\");\r\n        return a % b;\r\n    }\r\n}\r\n\r\npragma solidity ^0.5.0;\r\n\r\ncontract Context {\r\n    // Empty internal constructor, to prevent people from mistakenly deploying\r\n    // an instance of this contract, which should be used via inheritance.\r\n    constructor() internal {}\r\n\r\n    function _msgSender() internal view returns (address payable) {\r\n        return msg.sender;\r\n    }\r\n\r\n    function _msgData() internal view returns (bytes memory) {\r\n        this; // silence state mutability warning without generating bytecode - see https://github.com/ethereum/solidity/issues/2691\r\n        return msg.data;\r\n    }\r\n}\r\n\r\n// File: @openzeppelin/contracts/ownership/Ownable.sol\r\n\r\npragma solidity ^0.5.0;\r\n\r\ncontract Ownable is Context {\r\n    address private _owner;\r\n\r\n    event OwnershipTransferred(\r\n        address indexed previousOwner,\r\n        address indexed newOwner\r\n    );\r\n\r\n    constructor() internal {\r\n        _owner = _msgSender();\r\n        emit OwnershipTransferred(address(0), _owner);\r\n    }\r\n\r\n    function owner() public view returns (address) {\r\n        return _owner;\r\n    }\r\n\r\n    modifier onlyOwner() {\r\n        require(isOwner(), \"Ownable: caller is not the owner\");\r\n        _;\r\n    }\r\n\r\n    function isOwner() public view returns (bool) {\r\n        return _msgSender() == _owner;\r\n    }\r\n\r\n    function renounceOwnership() public onlyOwner {\r\n        emit OwnershipTransferred(_owner, address(0));\r\n        _owner = address(0);\r\n    }\r\n\r\n    function transferOwnership(address newOwner) public onlyOwner {\r\n        _transferOwnership(newOwner);\r\n    }\r\n\r\n    function _transferOwnership(address newOwner) internal {\r\n        require(\r\n            newOwner != address(0),\r\n            \"Ownable: new owner is the zero address\"\r\n        );\r\n        emit OwnershipTransferred(_owner, newOwner);\r\n        _owner = newOwner;\r\n    }\r\n}\r\n\r\npragma solidity ^0.5.0;\r\n\r\ncontract SMD_v5 is Ownable {\r\n    using SafeMath for uint256;\r\n\r\n    address public tokenAddress;\r\n    address public rewardTokenAddress;\r\n    uint256 public stakedTotal;\r\n    uint256 public stakedBalance;\r\n    uint256 public rewardBalance;\r\n    uint256 public totalReward;\r\n    uint256 public startingBlock;\r\n    uint256 public endingBlock;\r\n    uint256 public increaseBlock; //For testing purposes only\r\n    uint256 public buffer;\r\n    uint256 public period;\r\n    uint256 public accShare;\r\n    uint256 public lastRewardBlock;\r\n    bool public isPaused;\r\n\r\n    IERC20 public ERC20Interface;\r\n\r\n    struct Deposits {\r\n        uint256 amount;\r\n        uint256 initialStake;\r\n        uint256 latestClaim;\r\n        uint256 userAccShare;\r\n        uint256 currentPeriod;\r\n    }\r\n\r\n    struct periodDetails {\r\n        uint256 period;\r\n        uint256 accShare;\r\n        uint256 rewPerBlock;\r\n        uint256 startingBlock;\r\n        uint256 endingBlock;\r\n    }\r\n\r\n    mapping(address => Deposits) private deposits;\r\n    mapping(address => bool) public isPaid;\r\n    mapping(address => bool) public hasStaked;\r\n    mapping(uint256 => periodDetails) private endAccShare;\r\n\r\n    event Staked(\r\n        address indexed token,\r\n        address indexed staker_,\r\n        uint256 stakedAmount_\r\n    );\r\n    event PaidOut(\r\n        address indexed token,\r\n        address indexed rewardToken,\r\n        address indexed staker_,\r\n        uint256 amount_,\r\n        uint256 reward_\r\n    );\r\n\r\n    constructor(address _tokenAddress, address _rewardTokenAddress)\r\n        public\r\n        Ownable()\r\n    {\r\n        require(_tokenAddress != address(0), \"Zero token address\");\r\n        tokenAddress = _tokenAddress;\r\n        require(_rewardTokenAddress != address(0), \"Zero reward token address\");\r\n        rewardTokenAddress = _rewardTokenAddress;\r\n        isPaused = true;\r\n    }\r\n\r\n    function incBlock() public {\r\n        increaseBlock++;\r\n    } // For testing purposes only\r\n\r\n    function setStartEnd(uint256 _start, uint256 _end) private {\r\n        // require(isPaused);\r\n        require(\r\n            _start > currentBlock(), //block.number,\r\n            \"Start should be more than current block\"\r\n        );\r\n        require(_end > _start, \"End block should be greater than start\");\r\n        require(_end > currentBlock());\r\n        require(totalReward > 0, \"Add rewards for this period\");\r\n        startingBlock = _start;\r\n        endingBlock = _end;\r\n        period++;\r\n        isPaused = false;\r\n        lastRewardBlock = _start;\r\n    }\r\n\r\n    // function updateStartEnd(uint256 _start, uint256 _end)\r\n    //     external\r\n    //     onlyOwner\r\n    //     returns (bool)\r\n    // {\r\n    //     buffer = _start.sub(startingBlock);\r\n    //     setStartEnd(_start, _end);\r\n    // } //for testing purposes only\r\n\r\n    function userDeposits(address from)\r\n        external\r\n        view\r\n        returns (\r\n            uint256,\r\n            uint256,\r\n            uint256,\r\n            uint256\r\n        )\r\n    {\r\n        if (hasStaked[from]) {\r\n            return (\r\n                deposits[from].amount,\r\n                deposits[from].initialStake,\r\n                deposits[from].latestClaim,\r\n                deposits[from].currentPeriod\r\n            );\r\n        }\r\n    }\r\n\r\n    function addReward(uint256 _rewardAmount)\r\n        private\r\n        _hasAllowance(msg.sender, _rewardAmount, rewardTokenAddress)\r\n        returns (bool)\r\n    {\r\n        require(_rewardAmount > 0, \"Reward must be positive\");\r\n        address from = msg.sender;\r\n        if (!_payMe(from, _rewardAmount, rewardTokenAddress)) {\r\n            return false;\r\n        }\r\n\r\n        totalReward += _rewardAmount;\r\n        rewardBalance += _rewardAmount;\r\n    }\r\n\r\n    function reset() private {\r\n        require(block.number > endingBlock, \"Wait till end of this period\");\r\n        updateShare();\r\n        endAccShare[period] = periodDetails(\r\n            period,\r\n            accShare,\r\n            rewPerBlock(),\r\n            startingBlock,\r\n            endingBlock\r\n        );\r\n        totalReward = 0;\r\n        stakedBalance = 0;\r\n        isPaused = true;\r\n    }\r\n\r\n    function resetAndsetStartEndBlock(\r\n        uint256 rewardAmount,\r\n        uint256 _start,\r\n        uint256 _end\r\n    ) external onlyOwner returns (bool) {\r\n        reset();\r\n        bool rewardAdded = addReward(rewardAmount);\r\n        require(rewardAdded, \"Rewards error\");\r\n        setStartEnd(_start, _end);\r\n        return true;\r\n    }\r\n\r\n    function fetchUserShare(address from) public view returns (uint256) {\r\n        require(hasStaked[from] == true, \"No stakes found for user\");\r\n        require(stakedBalance > 0, \"No stakings found for current period\");\r\n        require(\r\n            deposits[from].currentPeriod == period,\r\n            \"Please renew in the active valid period\"\r\n        );\r\n        uint256 userAmount = deposits[from].amount;\r\n        require(userAmount > 0, \"No stakes available for user\"); //extra check\r\n        return (userAmount.mul(10000).div(stakedBalance)); //returns percentage upto 2 decimals\r\n    }\r\n\r\n    function updateShare() private {\r\n        if (block.number <= lastRewardBlock) {\r\n            return;\r\n        }\r\n        if (stakedBalance == 0) {\r\n            lastRewardBlock = block.number;\r\n            return;\r\n        }\r\n\r\n        uint256 noOfBlocks;\r\n\r\n        if (block.number >= endingBlock) {\r\n            noOfBlocks = endingBlock.sub(lastRewardBlock);\r\n        } else {\r\n            noOfBlocks = block.number.sub(lastRewardBlock);\r\n        }\r\n\r\n        uint256 rewards = noOfBlocks.mul(rewPerBlock());\r\n\r\n        accShare = accShare.add((rewards.mul(1e6).div(stakedBalance)));\r\n        if (block.number >= endingBlock) {\r\n            lastRewardBlock = endingBlock;\r\n        } else {\r\n            lastRewardBlock = block.number;\r\n        }\r\n    }\r\n\r\n    function rewPerBlock() public view returns (uint256) {\r\n        // require(rewardBalance > 0, \"No rewards available in the pool\");\r\n        // require(totalReward > 0, \"Add rewards for this period\");\r\n        if (totalReward == 0 || rewardBalance == 0) return 0;\r\n        uint256 rewardperBlock =\r\n            totalReward.div((endingBlock.sub(startingBlock))); // rewardperDay.div(28800);\r\n        return (rewardperBlock);\r\n    }\r\n\r\n    function stake(uint256 amount)\r\n        external\r\n        _hasAllowance(msg.sender, amount, tokenAddress)\r\n        returns (bool)\r\n    {\r\n        require(!isPaused, \"Contract is paused\");\r\n        require(\r\n            block.number >= startingBlock && block.number < endingBlock,\r\n            \"Invalid period\"\r\n        );\r\n        require(amount > 0, \"Can't stake 0 amount\");\r\n        address from = msg.sender;\r\n        // require(\r\n        //     !hasStaked[from],\r\n        //     \"Please use restake function or renew for the current period\"\r\n        // );\r\n        return (_stake(from, amount));\r\n    }\r\n\r\n    function _stake(address from, uint256 amount) private returns (bool) {\r\n        updateShare();\r\n\r\n        if (!hasStaked[from]) {\r\n            if (!_payMe(from, amount, tokenAddress)) {\r\n                return false;\r\n            }\r\n\r\n            // uint256 userAmount = deposits[from].amount;\r\n\r\n            deposits[from] = Deposits(\r\n                amount,\r\n                block.number,\r\n                block.number,\r\n                accShare,\r\n                period\r\n            );\r\n\r\n            emit Staked(tokenAddress, from, amount);\r\n\r\n            stakedBalance += amount;\r\n            stakedTotal += amount;\r\n            hasStaked[from] = true;\r\n            isPaid[from] = false;\r\n            return true;\r\n        } else {\r\n            require(\r\n                deposits[from].currentPeriod == period,\r\n                \"Please renew first and then stake\"\r\n            );\r\n            _claimRewards(from);\r\n            if (!_payMe(from, amount, tokenAddress)) {\r\n                return false;\r\n            }\r\n\r\n            uint256 userAmount = deposits[from].amount;\r\n\r\n            deposits[from] = Deposits(\r\n                userAmount.add(amount),\r\n                block.number,\r\n                block.number,\r\n                accShare,\r\n                period\r\n            );\r\n\r\n            emit Staked(tokenAddress, from, amount);\r\n\r\n            stakedBalance += amount;\r\n            stakedTotal += amount;\r\n            isPaid[from] = false;\r\n            return true;\r\n        }\r\n    }\r\n\r\n    // function reStake(uint256 amount) external returns (bool) {\r\n    //     address from = msg.sender;\r\n    //     if (!hasStaked[from]) {\r\n    //         return (_stake(from, amount));\r\n    //     } else {\r\n    //         require(\r\n    //             block.number > startingBlock && block.number < endingBlock,\r\n    //             \"Invalid period\"\r\n    //         );\r\n    //         require(\r\n    //             deposits[from].currentPeriod == period,\r\n    //             \"Please renew first and then restake\"\r\n    //         );\r\n    //         _claimRewards(from);\r\n\r\n    //         bool reStaked = _stake(from, amount);\r\n    //         require(reStaked, \"Error restaking\");\r\n    //         return true;\r\n    //     }\r\n    // }\r\n\r\n    function claimRewards() public returns (bool) {\r\n        require(fetchUserShare(msg.sender) > 0, \"No stakes found for user\");\r\n        return (_claimRewards(msg.sender));\r\n    }\r\n\r\n    function _claimRewards(address from) private returns (bool) {\r\n        uint256 userAccShare = deposits[from].userAccShare;\r\n        updateShare();\r\n        uint256 amount = deposits[from].amount;\r\n        uint256 rewDebt = amount.mul(userAccShare).div(1e6);\r\n        uint256 rew = (amount.mul(accShare).div(1e6)).sub(rewDebt);\r\n        require(rew > 0, \"No rewards generated\");\r\n        require(rew <= rewardBalance, \"Not enough rewards in the contract\");\r\n        deposits[from].userAccShare = accShare;\r\n        deposits[from].latestClaim = block.number;\r\n        rewardBalance -= rew;\r\n        bool payRewards = _payDirect(from, rew, rewardTokenAddress);\r\n        require(payRewards, \"Rewards transfer failed\");\r\n        emit PaidOut(tokenAddress, rewardTokenAddress, from, amount, rew);\r\n        return true;\r\n    }\r\n\r\n    function renew() external returns (bool) {\r\n        address from = msg.sender;\r\n        require(!isPaused, \"Contract paused\");\r\n        require(hasStaked[from], \"No stakings found, please stake\");\r\n        require(deposits[from].currentPeriod != period, \"Already renewed\");\r\n        require(\r\n            block.number > startingBlock && block.number < endingBlock,\r\n            \"Wrong time\"\r\n        );\r\n        updateShare();\r\n        if (viewOldRewards(from) > 0) {\r\n            bool claimed = claimOldRewards();\r\n            require(claimed, \"Error paying old rewards\");\r\n        }\r\n        deposits[from].currentPeriod = period;\r\n        deposits[from].initialStake = block.number;\r\n        deposits[from].latestClaim = block.number;\r\n        deposits[from].userAccShare = accShare;\r\n        stakedBalance += deposits[from].amount;\r\n    }\r\n\r\n    function viewOldRewards(address from) public view returns (uint256) {\r\n        //Testing purposes only\r\n        require(!isPaused, \"Contract paused\");\r\n        require(hasStaked[from], \"No stakings found, please stake\");\r\n        // require(deposits[from].currentPeriod != period, \"Already renewed\");\r\n\r\n        if (deposits[from].currentPeriod == period) {\r\n            return 0;\r\n        }\r\n\r\n        uint256 userPeriod = deposits[from].currentPeriod;\r\n\r\n        uint256 accShare1 = endAccShare[userPeriod].accShare;\r\n        uint256 userAccShare = deposits[from].userAccShare;\r\n\r\n        require(\r\n            deposits[from].latestClaim < endAccShare[userPeriod].endingBlock,\r\n            \"Already claimed old rewards\"\r\n        );\r\n        uint256 amount = deposits[from].amount;\r\n        uint256 rewDebt = amount.mul(userAccShare).div(1e6);\r\n        uint256 rew = (amount.mul(accShare1).div(1e6)).sub(rewDebt);\r\n\r\n        require(rew <= rewardBalance, \"Not enough rewards\");\r\n\r\n        return (rew);\r\n    }\r\n\r\n    function claimOldRewards() public returns (bool) {\r\n        address from = msg.sender;\r\n        require(!isPaused, \"Contract paused\");\r\n        require(hasStaked[from], \"No stakings found, please stake\");\r\n        require(deposits[from].currentPeriod != period, \"Already renewed\");\r\n\r\n        uint256 userPeriod = deposits[from].currentPeriod;\r\n\r\n        uint256 accShare1 = endAccShare[userPeriod].accShare;\r\n        uint256 userAccShare = deposits[from].userAccShare;\r\n\r\n        require(\r\n            deposits[from].latestClaim < endAccShare[userPeriod].endingBlock,\r\n            \"Already claimed old rewards\"\r\n        );\r\n        uint256 amount = deposits[from].amount;\r\n        uint256 rewDebt = amount.mul(userAccShare).div(1e6);\r\n        uint256 rew = (amount.mul(accShare1).div(1e6)).sub(rewDebt);\r\n\r\n        require(rew <= rewardBalance, \"Not enough rewards\");\r\n        deposits[from].latestClaim = endAccShare[userPeriod].endingBlock;\r\n        bool paidOldRewards = _payDirect(from, rew, rewardTokenAddress);\r\n        require(paidOldRewards, \"Error paying\");\r\n        emit PaidOut(tokenAddress, rewardTokenAddress, from, amount, rew);\r\n        return true;\r\n    }\r\n\r\n    function calculate(address from) public view returns (uint256) {\r\n        // require(fetchUserShare(from) > 0, \"No stakes found for user\");\r\n        if (fetchUserShare(from) == 0) return 0;\r\n        return (_calculate(from));\r\n    }\r\n\r\n    function _calculate(address from) private view returns (uint256) {\r\n        uint256 userAccShare = deposits[from].userAccShare;\r\n        uint256 currentAccShare = accShare;\r\n        //Simulating updateShare() to calculate rewards\r\n        if (block.number <= lastRewardBlock) {\r\n            return 0;\r\n        }\r\n        if (stakedBalance == 0) {\r\n            return 0;\r\n        }\r\n\r\n        uint256 noOfBlocks;\r\n\r\n        if (block.number >= endingBlock) {\r\n            noOfBlocks = endingBlock.sub(lastRewardBlock);\r\n        } else {\r\n            noOfBlocks = block.number.sub(lastRewardBlock);\r\n        }\r\n\r\n        uint256 rewards = noOfBlocks.mul(rewPerBlock());\r\n\r\n        uint256 newAccShare =\r\n            currentAccShare.add((rewards.mul(1e6).div(stakedBalance)));\r\n        uint256 amount = deposits[from].amount;\r\n        uint256 rewDebt = amount.mul(userAccShare).div(1e6);\r\n        uint256 rew = (amount.mul(newAccShare).div(1e6)).sub(rewDebt);\r\n        return (rew);\r\n    }\r\n\r\n    function withdraw() external returns (bool) {\r\n        address from = msg.sender;\r\n        require(hasStaked[from] == true, \"No stakes available for user\");\r\n        require(isPaid[from] == false, \"Already Paid\");\r\n        return (_withdraw(from));\r\n    }\r\n\r\n    function _withdraw(address from) private returns (bool) {\r\n        updateShare();\r\n        uint256 amount = deposits[from].amount;\r\n        if (!isPaused && deposits[from].currentPeriod == period) {\r\n            stakedBalance = stakedBalance.sub(amount);\r\n        }\r\n        isPaid[from] = true;\r\n        hasStaked[from] = false;\r\n        bool paid = _payDirect(from, amount, tokenAddress);\r\n        require(paid, \"Error\");\r\n        delete deposits[from];\r\n        return true;\r\n    }\r\n\r\n    function exit() external returns (bool) {\r\n        address from = msg.sender;\r\n        if (calculate(from) > 0) {\r\n            bool rewardsPaid = claimRewards();\r\n            require(rewardsPaid, \"Error paying rewards\");\r\n        }\r\n\r\n        if (viewOldRewards(from) > 0) {\r\n            bool oldRewardsPaid = claimOldRewards();\r\n            require(oldRewardsPaid, \"Error paying old rewards\");\r\n        }\r\n        _withdraw(from);\r\n    }\r\n\r\n    // function removeRewards() public returns (bool) {\r\n    //     require(rewardBalance > 0, \"No rewards in the pool\");\r\n    //     _payDirect(msg.sender, rewardBalance, rewardTokenAddress);\r\n    //     rewardBalance = 0;\r\n    // }  - For testing purpose only\r\n\r\n    function currentBlock() public view returns (uint256) {\r\n        return (block.number);\r\n    }\r\n\r\n    function _payMe(\r\n        address payer,\r\n        uint256 amount,\r\n        address token\r\n    ) private returns (bool) {\r\n        return _payTo(payer, address(this), amount, token);\r\n    }\r\n\r\n    function _payTo(\r\n        address allower,\r\n        address receiver,\r\n        uint256 amount,\r\n        address token\r\n    ) private returns (bool) {\r\n        // Request to transfer amount from the contract to receiver.\r\n        // contract does not own the funds, so the allower must have added allowance to the contract\r\n        // Allower is the original owner.\r\n        ERC20Interface = IERC20(token);\r\n        return ERC20Interface.transferFrom(allower, receiver, amount);\r\n    }\r\n\r\n    function _payDirect(\r\n        address to,\r\n        uint256 amount,\r\n        address token\r\n    ) private returns (bool) {\r\n        ERC20Interface = IERC20(token);\r\n        return ERC20Interface.transfer(to, amount);\r\n    }\r\n\r\n    modifier _hasAllowance(\r\n        address allower,\r\n        uint256 amount,\r\n        address token\r\n    ) {\r\n        // Make sure the allower has provided the right allowance.\r\n        ERC20Interface = IERC20(token);\r\n        uint256 ourAllowance = ERC20Interface.allowance(allower, address(this));\r\n        require(amount <= ourAllowance, \"Make sure to add enough allowance\");\r\n        _;\r\n    }\r\n}\r\n",
  "sourcePath": "C:\\Users\\chait\\OneDrive\\Desktop\\Minddeft\\Projects\\Seedify\\Testing\\contracts\\SMD_v5.sol",
  "compiler": {
    "name": "solc",
    "version": "0.5.16+commit.9c3226ce.Emscripten.clang"
  },
  "schemaVersion": "3.1.0",
  "updatedAt": "2021-03-24T08:53:55.871Z",
  "devdoc": {
    "methods": {}
  },
  "userdoc": {
    "methods": {}
  }
}